:100000000C9434000C9451000C9451000C94510049
:100010000C9451000C9451000C9451000C9451001C
:100020000C9451000C9451000C9451000C9451000C
:100030000C9451000C9451000C9451000C945100FC
:100040000C9451000C9451000C9451000C945100EC
:100050000C9451000C9451000C9451000C945100DC
:100060000C9451000C94510011241FBECFEFD8E026
:10007000DEBFCDBF11E0A0E0B1E0E2E4FBE002C0F2
:1000800005900D92AC35B107D9F722E0ACE5B1E0AF
:1000900001C01D92A632B207E1F70E94C4010C9480
:1000A0009F050C94000084B1816084B98AB1806896
:1000B0008AB984B1846084B984B18D7F84B908958C
:1000C00080E090E00DC0FC01EE59FE4F2081FC0164
:1000D000EE0FFF1FEA59FE4F30E031832083019677
:1000E0008430910584F3089560E070E01FC0CB0177
:1000F000880F991F880F991F880F991F820F931FD0
:10010000880F991FFC01E050FF4F40815181FC0195
:10011000E957FE4F518340832F5F3F4F02C020E0DD
:1001200030E0283031051CF36F5F7F4F643071057C
:10013000B4F308950F931F93CF93DF9300E010E083
:1001400056C0F801EE59FE4F808190E09C010C2EC4
:1001500002C0359527950A94E2F720FF3EC0F801CA
:10016000EE0FFF1FEE0FFF1FEE0FFF1FEC0FFD1F27
:10017000EE0FFF1FE050FF4F40815181F801EE0F5D
:10018000FF1FEA59FE4F208131818217930729F121
:10019000452B19F1F801EE0FFF1FEE0FFF1FEE0FB9
:1001A000FF1FEC0FFD1FEE0FFF1FE050FF4F808180
:1001B000918190936101809360011182108281E0AE
:1001C00090E090935F0180935E0190935D01809336
:1001D0005C010E9460000E947400219602C0C0E091
:1001E000D0E0C830D1050CF4ACCF0F5F1F4F043006
:1001F0001105ACF3DF91CF911F910F9108950F93EB
:100200001F93CF93DF9300E010E058C0F801EE5940
:10021000FE4F808190E09C010C2E02C03595279501
:100220000A94E2F720FD40C0F801EE0FFF1FEE0F29
:10023000FF1FEE0FFF1FEC0FFD1FEE0FFF1FE95713
:10024000FE4F40815181F801EE0FFF1FEA59FE4F2A
:10025000208131818217930739F1452B29F580914F
:10026000600190916101F801EE0FFF1FEE0FFF1F7B
:10027000EE0FFF1FEC0FFD1FEE0FFF1FE050FF4FB3
:100280009183808381E090E090935F0180935E0191
:1002900010925D0110925C01109261011092600158
:1002A0000E9460000E947400219602C0C0E0D0E06D
:1002B000C830D1050CF4AACF0F5F1F4F04301105D1
:1002C000ACF3DF91CF911F910F910895CF92DF9200
:1002D000EF92FF920F931F93CF93DF93CDB7DEB7CB
:1002E00069970FB6F894DEBF0FBECDBFE12CF12C9D
:1002F00038C0F701EE0FFF1FEE0FFF1FEE0FFF1FBD
:10030000E00FF11FEE0FFF1FE050FF4F8081918142
:100310009F938F9380E491E09F938F93CE010196FA
:100320006C019F938F930E94B502C6010E94A802A0
:100330000F5F1F4F0F900F900F900F900F900F9027
:1003400002C000E010E0083011059CF288E591E061
:100350000E94A80288E591E00E94A8029FEFE91A96
:10036000F90A84E0E816F10464F369960FB6F8948C
:10037000DEBF0FBECDBFDF91CF911F910F91FF90D8
:10038000EF90DF90CF9008950E94530087E690E0B1
:100390000E94920267E070E080E090E00E946902B3
:1003A00067E070E081E090E00E943402C2E6D1E0B4
:1003B0008B8367E070E081E090E00E9434028A83E2
:1003C00067E070E081E090E00E943402898367E09A
:1003D00070E081E090E00E94340288830E949A00DD
:1003E0002FEF89E698E1215080409040E1F700C06E
:1003F000000080916001909161019F938F938EE442
:1004000091E09F938F9380EE91E09F938F930E9452
:10041000B50280EE91E00E94A80280915C0190916B
:100420005D010F900F900F900F900F900F90892B00
:1004300059F00E94FF002FEF89E698E1215080409B
:100440009040E1F700C000000E9466012FEF89E6AE
:1004500098E1215080409040E1F700C000001092E8
:100460005F0110925E0196CFA82FE0E0F0E080E0FF
:100470002CC09BB121E030E0A901062E02C0440F40
:10048000551F0A94E2F7742F709597239BB995E155
:100490009A95F1F7000093B10A2E02C0220F331F84
:1004A0000A94E2F7292349F021E030E00E2E02C041
:1004B000220F331F0A94E2F7822B9BB1492B4BB9D1
:1004C00095E19A95F1F700003196E830F1058CF24C
:1004D00008954BB121E030E0F90102C0EE0FFF1F9B
:1004E0006A95E2F79E2F909594239BB9FAE6FA95C8
:1004F000F1F700C045B1B90102C0660F771F8A95B8
:10050000E2F7CB01962F9095942395B97AE67A95E8
:10051000F1F700C095B1892B85B98AE68A95F1F784
:1005200000C008959093C5008093C40088E1809333
:10053000C100E2ECF0E086E0808380818860808307
:1005400008959091C00095FFFCCF8093C600089558
:10055000CF93DF93EC0103C00E94A1022196888112
:100560008111FACFDF91CF910895AEE0B0E0EBEBCF
:10057000F2E00C9476050D891E8986E08C831A833F
:1005800009838FEF9FE79E838D83AE01475E5F4FA8
:100590006F89788DCE0101960E94D702EF81F88590
:1005A000E00FF11F10822E96E4E00C949205ABE070
:1005B000B0E0EDEDF2E00C9468056C017B018A017E
:1005C000FC0117821682838181FFCCC1CE01019686
:1005D0003C01F6019381F70193FD859193FF819191
:1005E0007F01882309F4BAC1853239F493FD8591DE
:1005F00093FF81917F01853229F4B60190E00E943A
:10060000CE04E7CF912C212C312CFFE1F315D8F04B
:100610008B3279F038F4803279F08332A1F4232DD3
:1006200020611DC08D3261F0803369F4232D21607B
:1006300016C0832D8260382EE32DE4603E2E2AC042
:10064000F32DF8601DC037FC2DC020ED280F2A3097
:1006500040F08E32B9F436FC81C1232D2064322E55
:1006600019C036FE06C08AE0989E200D1124922EF5
:1006700011C0EAE02E9E200D1124222EF32DF062EF
:100680003F2E08C08C3621F4832D8068382E02C09E
:10069000883641F4F70193FD859193FF81917F01A5
:1006A0008111B3CF982F9F7D9554933028F40C5F20
:1006B0001F4F9FE399830DC0833631F0833771F06C
:1006C000833509F059C021C0F801808189830E5F0C
:1006D0001F4F88248394912C530113C02801F2E00A
:1006E0004F0E511CF801A080B18036FE03C0692D69
:1006F00070E002C06FEF7FEFC5010E94C3044C01A0
:100700008201F32DFF773F2E16C0280122E0420E12
:10071000511CF801A080B18036FE03C0692D70E045
:1007200002C06FEF7FEFC5010E94B8044C01F32DAA
:10073000F0683F2E820133FC1BC0822D90E08816AA
:100740009906B0F4B60180E290E00E94CE042A94AB
:10075000F4CFF50137FC859137FE81915F01B60139
:1007600090E00E94CE0421102A9421E0821A910880
:100770008114910471F7E8C0843611F0893641F58F
:10078000F80137FE07C060817181828193810C5F1F
:100790001F4F08C060817181072E000C880B990BD8
:1007A0000E5F1F4FF32DFF763F2E97FF09C09095E8
:1007B0008095709561957F4F8F4F9F4FF0683F2ECA
:1007C0002AE030E0A3010E940A05882E861845C061
:1007D000853731F4232D2F7EB22E2AE030E025C05C
:1007E000932D997FB92E8F36C1F018F4883579F0A2
:1007F000B5C0803719F0883721F0B0C0E92FE0612B
:10080000BE2EB4FE0DC0FB2DF460BF2E09C034FE19
:100810000AC0292F2660B22E06C028E030E005C0AD
:1008200020E130E002C020E132E0F801B7FE07C06D
:1008300060817181828193810C5F1F4F06C060814E
:10084000718180E090E00E5F1F4FA3010E940A05B6
:10085000882E8618FB2DFF773F2E36FE0DC0232DE8
:100860002E7FA22E891458F434FE0BC032FC09C02E
:10087000832D8E7EA82E05C0B82CA32C03C0B82CC7
:1008800001C0B92CA4FE0FC0FE01E80DF11D80814E
:10089000803321F49A2D997EA92E09C0A2FE06C0AC
:1008A000B394B39404C08A2D867809F0B394A3FC62
:1008B00011C0A0FE06C0B21488F4280C922C9B181C
:1008C0000EC0B21460F4B60180E290E00E94CE0443
:1008D000B394F7CFB21418F42B1802C0982C212C23
:1008E000A4FE10C0B60180E390E00E94CE04A2FEF8
:1008F00017C0A1FC03C088E790E002C088E590E043
:10090000B6010CC08A2D867859F0A1FE02C08BE298
:1009100001C080E2A7FC8DE2B60190E00E94CE0407
:10092000891438F4B60180E390E00E94CE049A94D2
:10093000F7CF8A94F301E80DF11D8081B60190E0B4
:100940000E94CE048110F5CF222009F442CEB601D8
:1009500080E290E00E94CE042A94F6CFF6018681D0
:10096000978102C08FEF9FEF2B96E2E10C948405F4
:10097000FC010590615070400110D8F7809590956A
:100980008E0F9F1F0895FC0161507040019001106F
:10099000D8F7809590958E0F9F1F08950F931F9302
:1009A000CF93DF93FB01238121FD03C08FEF9FEFE6
:1009B0002CC022FF16C04681578124813581421701
:1009C000530744F4A081B1819D012F5F3F4F3183D4
:1009D00020838C93268137812F5F3F4F3783268377
:1009E00014C08B01EC01FB010084F185E02D099519
:1009F000892BE1F6D80116968D919C911797019657
:100A000017969C938E931697CE01DF91CF911F91ED
:100A10000F910895FA01AA27283051F1203181F170
:100A2000E8946F936E7F6E5F7F4F8F4F9F4FAF4FF6
:100A3000B1E03ED0B4E03CD0670F781F891F9A1F09
:100A4000A11D680F791F8A1F911DA11D6A0F711DBD
:100A5000811D911DA11D20D009F468943F912AE0C9
:100A6000269F11243019305D3193DEF6CF010895B1
:100A7000462F4770405D4193B3E00FD0C9F7F6CFE2
:100A8000462F4F70405D4A3318F0495D31FD4052AA
:100A9000419302D0A9F7EACFB4E0A6959795879540
:100AA00077956795BA95C9F700976105710508951F
:100AB0009B01AC010A2E06945795479537952795CB
:100AC000BA95C9F7620F731F841F951FA01D089563
:100AD0002F923F924F925F926F927F928F929F924E
:100AE000AF92BF92CF92DF92EF92FF920F931F933C
:100AF000CF93DF93CDB7DEB7CA1BDB0B0FB6F894ED
:100B0000DEBF0FBECDBF09942A88398848885F842C
:100B10006E847D848C849B84AA84B984C884DF809D
:100B2000EE80FD800C811B81AA81B981CE0FD11D81
:100B30000FB6F894DEBF0FBECDBFED010895F89457
:020B4000FFCFE5
:100B42003300000029005B0064002A00000000005E
:100B52000000000000000000000000000000000093
:100B62000000000000000000000000000000000083
:100B72000000000000000000000000000000000073
:100B8200092564200009202578200A0D20007465BB
:0C0B92006D70203D202564200A0D00003D
:00000001FF
