S013000048616C6C5F6566666563742E73726563C4
S11300000C9444000C9461000C9461000C94610005
S11300100C9461000C9461000C9461000C946100D8
S11300200C9461000C9461000C9461000C946100C8
S11300300C9461000C9461000C9461000C946100B8
S11300400C9461000C9461000C9461000C946100A8
S11300500C9461000C9461000C9461000C94610098
S11300600C9461000C946100F70005011301210157
S11300702F013D014B0159018F019B01A701B301E0
S1130080BF01CB01D701E30111241FBECFEFD8E09C
S1130090DEBFCDBF11E0A0E0B1E0ECEBFEE002C0BA
S11300A005900D92AC3AB107D9F722E0ACEAB1E081
S11300B001C01D92A637B207E1F70E9474030C94A5
S11300C05C070C940000CF93DF93CDB7DEB7649741
S11300D00FB6F894DEBF0FBECDBF8733910574F41D
S11300E083339105CCF48F3191050CF45BC08332DA
S11300F0910504F18997049758F154C08436910509
S113010009F442C02CF48B559109029778F14AC046
S1130110883C9105C9F146C087E0E0E4F1E0DE01E6
S1130120119601900D928A95E1F7CE0101960E94F5
S11301305F0441C089E0E7E4F1E0DE01119601903B
S11301400D928A95E1F7CE0101960E945F0433C0B7
S113015089E0E0E5F1E0DE01119601900D928A95C7
S1130160E1F7CE0101960E945F0425C088E0E9E52D
S1130170F1E0DE01119601900D928A95E1F7CE012E
S113018001960E945F0417C087E0E1E6F1E0DE011A
S1130190119601900D928A95E1F7CE0101960E9485
S11301A05F0409C08AE09DE09A8389831B82CE01A3
S11301B001960E945F0464960FB6F894DEBF0FBEEA
S11301C0CDBFDF91CF910895CF93DF93CDB7DEB745
S11301D064970FB6F894DEBF0FBECDBF883091058B
S11301E008F075C0FC01EC5CFF4F0C946C0485E0D6
S11301F0E8E6F1E0DE01119601900D928A95E1F7AF
S1130200CE0101960E945F046BC085E0EDE6F1E04B
S1130210DE01119601900D928A95E1F7CE010196C7
S11302200E945F045DC085E0E2E7F1E0DE01119623
S113023001900D928A95E1F7CE0101960E945F0428
S11302404FC085E0E7E7F1E0DE01119601900D92E1
S11302508A95E1F7CE0101960E945F0441C085E0D2
S1130260ECE7F1E0DE01119601900D928A95E1F739
S1130270CE0101960E945F0433C085E0E1E8F1E01D
S1130280DE01119601900D928A95E1F7CE01019657
S11302900E945F0425C085E0E6E8F1E0DE011196E6
S11302A001900D928A95E1F7CE0101960E945F04B8
S11302B017C085E0EBE8F1E0DE01119601900D92A4
S11302C08A95E1F7CE0101960E945F0409C08AE095
S11302D09DE09A8389831B82CE0101960E945F046C
S11302E064960FB6F894DEBF0FBECDBFDF91CF91F9
S11302F008950F931F93CF93DF93CDB7DEB7649721
S11303000FB6F894DEBF0FBECDBF6830710508F09C
S113031065C08C01FB01E45CFF4F0C946C0481E626
S113032090E09A838983CE0101960E945F04C801FC
S11303300E94E40053C082E690E09A838983CE0150
S113034001960E945F04C8010E94E40047C083E64E
S113035090E09A838983CE0101960E945F04C801CC
S11303600E94E4003BC084E690E09A838983CE0136
S113037001960E945F04C8010E94E4002FC085E634
S113038090E09A838983CE0101960E945F04C8019C
S11303900E94E40023C086E690E09A838983CE011C
S11303A001960E945F04C8010E94E40017C087E61A
S11303B090E09A838983CE0101960E945F04C8016C
S11303C00E94E4000BC088E690E09A838983CE0102
S11303D001960E945F04C8010E94E40064960FB66F
S11303E0F894DEBF0FBECDBFDF91CF911F910F9167
S11303F0089584B1816084B98AB180688AB984B16E
S1130400846084B984B18D7F84B9089580E090E0DC
S11304100DC0FC01EE54FE4F2081FC01EE0FFF1FC6
S1130420EA54FE4F30E031832083019684309105F5
S113043084F3089560E070E01FC0CB01880F991F1A
S1130440880F991F880F991F820F931F880F991F78
S1130450FC01E050FF4F40815181FC01E952FE4F05
S1130460518340832F5F3F4F02C020E030E02830AB
S113047031051CF36F5F7F4F64307105B4F3089549
S11304800F931F93CF93DF9300E010E056C0F80161
S1130490EE54FE4F808190E09C010C2E02C03595F5
S11304A027950A94E2F720FF3EC0F801EE0FFF1FE4
S11304B0EE0FFF1FEE0FFF1FEC0FFD1FEE0FFF1FD0
S11304C0E050FF4F40815181F801EE0FFF1FEA54C5
S11304D0FE4F208131818217930729F1452B19F1B1
S11304E0F801EE0FFF1FEE0FFF1FEE0FFF1FEC0FC3
S11304F0FD1FEE0FFF1FE050FF4F8081918190930D
S1130500B1018093B0011182108281E090E0909358
S1130510AF018093AE019093AD018093AC010E9432
S113052006020E941A02219602C0C0E0D0E0C83040
S1130530D1050CF4ACCF0F5F1F4F04301105ACF3A1
S1130540DF91CF911F910F9108950F931F93CF9334
S1130550DF9300E010E062C0F801EE54FE4F8081AA
S113056090E09C010C2E02C0359527950A94E2F781
S113057020FD4AC0F801EE0FFF1FEE0FFF1FEE0F24
S1130580FF1FEC0FFD1FEE0FFF1FE952FE4F4081CE
S11305905181F801EE0FFF1FEA54FE4F2081318193
S11305A08217930789F1452B79F58091B0019091D9
S11305B0B101F801EE0FFF1FEE0FFF1FEE0FFF1F3B
S11305C0EC0FFD1FEE0FFF1FE050FF4F9183808360
S11305D081E090E09093AF018093AE011092AD0161
S11305E01092AC018091B0019091B1010E9463001E
S11305F0BE01C8010E9479010E9406020E941A02EB
S11306001092B1011092B001219602C0C0E0D0E076
S1130610C830D1050CF4A0CF0F5F1F4F0430110573
S1130620ACF3DF91CF911F910F910895CF92DF9298
S1130630EF92FF920F931F93CF93DF93CDB7DEB763
S113064069970FB6F894DEBF0FBECDBFE12CF12C35
S113065038C0F701EE0FFF1FEE0FFF1FEE0FFF1F55
S1130660E00FF11FEE0FFF1FE050FF4F80819181DB
S11306709F938F9380E991E09F938F93CE0101968E
S11306806C019F938F930E947204C6010E945F04C1
S11306900F5F1F4F0F900F900F900F900F900F90C0
S11306A002C000E010E0083011059CF28AE691E0F7
S11306B00E945F048AE691E00E945F049FEFE91ABA
S11306C0F90A84E0E816F10464F369960FB6F89425
S11306D0DEBF0FBECDBFDF91CF911F910F91FF9071
S11306E0EF90DF90CF9008950E94F90187E690E0A3
S11306F00E94490467E070E080E090E00E942004DA
S113070067E070E081E090E00E94EB03C2EBD1E08F
S11307108B8367E070E081E090E00E94EB038A83C2
S113072067E070E081E090E00E94EB03898367E07A
S113073070E081E090E00E94EB0388830E94400215
S11307402FEF89E698E1215080409040E1F700C006
S113075000008091B0019091B1019F938F938EE935
S113076091E09F938F9380E392E09F938F930E94F5
S1130770720480E392E00E945F048091AC01909146
S1130780AD010F900F900F900F900F900F90892B49
S113079059F00E94A5022FEF89E698E1215080408C
S11307A09040E1F700C000008091AE019091AF014C
S11307B0892B09F49FCF0E9416032FEF89E698E155
S11307C0215080409040E1F700C000001092AF013A
S11307D01092AE018FCFA82FE0E0F0E080E02CC0B3
S11307E09BB121E030E0A901062E02C0440F551F41
S11307F00A94E2F7742F709597239BB995E19A9523
S1130800F1F7000093B10A2E02C0220F331F0A949D
S1130810E2F7292349F021E030E00E2E02C0220F36
S1130820331F0A94E2F7822B9BB1492B4BB995E114
S11308309A95F1F700003196E830F1058CF20895AD
S11308404BB121E030E0F90102C0EE0FFF1F6A95C1
S1130850E2F79E2F909594239BB9FAE6FA95F1F767
S113086000C045B1B90102C0660F771F8A95E2F74F
S1130870CB01962F9095942395B97AE67A95F1F762
S113088000C095B1892B85B98AE68A95F1F700C035
S113089008959093C5008093C40088E18093C100BB
S11308A0E2ECF0E086E080838081886080830895B4
S11308B09091C00095FFFCCF8093C6000895CF931C
S11308C0DF93EC0103C00E945804219688818111B2
S11308D0FACFDF91CF910895EE0FFF1F0590F491A9
S11308E0E02D0994AEE0B0E0E8E7F4E00C943307BF
S11308F00D891E8986E08C831A8309838FEF9FE715
S11309009E838D83AE01475E5F4F6F89788DCE01E4
S113091001960E949404EF81F885E00FF11F108284
S11309202E96E4E00C944F07ABE0B0E0EAE9F4E083
S11309300C9425076C017B018A01FC011782168245
S1130940838181FFCCC1CE0101963C01F6019381E4
S1130950F70193FD859193FF81917F01882309F429
S1130960BAC1853239F493FD859193FF81917F015A
S1130970853229F4B60190E00E948B06E7CF912CD2
S1130980212C312CFFE1F315D8F08B3279F038F4B7
S1130990803279F08332A1F4232D20611DC08D3281
S11309A061F0803369F4232D216016C0832D8260A9
S11309B0382EE32DE4603E2E2AC0F32DF8601DC0CE
S11309C037FC2DC020ED280F2A3040F08E32B9F4C8
S11309D036FC81C1232D2064322E19C036FE06C098
S11309E08AE0989E200D1124922E11C0EAE02E9EDA
S11309F0200D1124222EF32DF0623F2E08C08C36D8
S1130A0021F4832D8068382E02C0883641F4F70122
S1130A1093FD859193FF81917F018111B3CF982F2D
S1130A209F7D9554933028F40C5F1F4F9FE3998367
S1130A300DC0833631F0833771F0833509F059C026
S1130A4021C0F801808189830E5F1F4F882483941D
S1130A50912C530113C02801F2E04F0E511CF801F0
S1130A60A080B18036FE03C0692D70E002C06FEF34
S1130A707FEFC5010E9480064C018201F32DFF77B0
S1130A803F2E16C0280122E0420E511CF801A0801E
S1130A90B18036FE03C0692D70E002C06FEF7FEFB6
S1130AA0C5010E9475064C01F32DF0683F2E8201AA
S1130AB033FC1BC0822D90E088169906B0F4B60171
S1130AC080E290E00E948B062A94F4CFF50137FC73
S1130AD0859137FE81915F01B60190E00E948B06FB
S1130AE021102A9421E0821A91088114910471F74B
S1130AF0E8C0843611F0893641F5F80137FE07C0A5
S1130B0060817181828193810C5F1F4F08C0608175
S1130B107181072E000C880B990B0E5F1F4FF32D6C
S1130B20FF763F2E97FF09C090958095709561954B
S1130B307F4F8F4F9F4FF0683F2E2AE030E0A30194
S1130B400E94C706882E861845C0853731F4232DA8
S1130B502F7EB22E2AE030E025C0932D997FB92E46
S1130B608F36C1F018F4883579F0B5C0803719F0A4
S1130B70883721F0B0C0E92FE061BE2EB4FE0DC06D
S1130B80FB2DF460BF2E09C034FE0AC0292F266055
S1130B90B22E06C028E030E005C020E130E002C0FB
S1130BA020E132E0F801B7FE07C0608171818281E3
S1130BB093810C5F1F4F06C06081718180E090E0DB
S1130BC00E5F1F4FA3010E94C706882E8618FB2DB7
S1130BD0FF773F2E36FE0DC0232D2E7FA22E8914C3
S1130BE058F434FE0BC032FC09C0832D8E7EA82E2F
S1130BF005C0B82CA32C03C0B82C01C0B92CA4FE8A
S1130C000FC0FE01E80DF11D8081803321F49A2D7F
S1130C10997EA92E09C0A2FE06C0B394B39404C061
S1130C208A2D867809F0B394A3FC11C0A0FE06C0F7
S1130C30B21488F4280C922C9B180EC0B21460F4E1
S1130C40B60180E290E00E948B06B394F7CFB21411
S1130C5018F42B1802C0982C212CA4FE10C0B60145
S1130C6080E390E00E948B06A2FE17C0A1FC03C0A3
S1130C7088E790E002C088E590E0B6010CC08A2DB8
S1130C80867859F0A1FE02C08BE201C080E2A7FC85
S1130C908DE2B60190E00E948B06891438F4B60107
S1130CA080E390E00E948B069A94F7CF8A94F30134
S1130CB0E80DF11D8081B60190E00E948B06811041
S1130CC0F5CF222009F442CEB60180E290E00E94E2
S1130CD08B062A94F6CFF6018681978102C08FEFA6
S1130CE09FEF2B96E2E10C944107FC0105906150C3
S1130CF070400110D8F7809590958E0F9F1F08952E
S1130D00FC016150704001900110D8F780959095D6
S1130D108E0F9F1F08950F931F93CF93DF93FB01B3
S1130D20238121FD03C08FEF9FEF2CC022FF16C04B
S1130D3046815781248135814217530744F4A081A9
S1130D40B1819D012F5F3F4F318320838C93268196
S1130D5037812F5F3F4F3783268314C08B01EC010B
S1130D60FB010084F185E02D0995892BE1F6D8017A
S1130D7016968D919C911797019617969C938E9336
S1130D801697CE01DF91CF911F910F910895FA012B
S1130D90AA27283051F1203181F1E8946F936E7FB6
S1130DA06E5F7F4F8F4F9F4FAF4FB1E03ED0B4E0A7
S1130DB03CD0670F781F891F9A1FA11D680F791FE8
S1130DC08A1F911DA11D6A0F711D811D911DA11DF9
S1130DD020D009F468943F912AE0269F1124301909
S1130DE0305D3193DEF6CF010895462F4770405DA4
S1130DF04193B3E00FD0C9F7F6CF462F4F70405D53
S1130E004A3318F0495D31FD4052419302D0A9F7AD
S1130E10EACFB4E0A6959795879577956795BA95A7
S1130E20C9F700976105710508959B01AC010A2E6D
S1130E3006945795479537952795BA95C9F7620F44
S1130E40731F841F951FA01D08952F923F924F92E8
S1130E505F926F927F928F929F92AF92BF92CF9246
S1130E60DF92EF92FF920F931F93CF93DF93CDB74F
S1130E70DEB7CA1BDB0B0FB6F894DEBF0FBECDBFC7
S1130E8009942A88398848885F846E847D848C8498
S1130E909B84AA84B984C884DF80EE80FD800C81A1
S1130EA01B81AA81B981CE0FD11D0FB6F894DEBF84
S10F0EB00FBECDBFED010895F894FFCFF4
S1130EBC3300000029005B0064002A0000000000DD
S1130ECC0000000000000000000000000000000012
S1130EDC0000000000000000000000000000000002
S1130EEC00000000000000000000000000000000F2
S1130EFC526F6F6B2D2D004B6E696768742D2D002E
S1130F0C426973686F702D2D00517565656E2D2DBA
S1130F1C004B696E672D2D0031200A0D0032200A1A
S1130F2C0D0033200A0D0034200A0D0035200A0D63
S1130F3C0036200A0D0037200A0D0038200A0D0057
S1130F4C092564200009202578200A0D20007465E9
S10F0F5C6D70203D202564200A0D00006B
S9030000FC
